{
  "contractName": "Exchanger",
  "abi": [
    {
      "inputs": [
        {
          "internalType": "address",
          "name": "token_",
          "type": "address"
        },
        {
          "internalType": "address",
          "name": "paraswap_",
          "type": "address"
        }
      ],
      "stateMutability": "nonpayable",
      "type": "constructor"
    },
    {
      "anonymous": false,
      "inputs": [
        {
          "indexed": false,
          "internalType": "uint256",
          "name": "value",
          "type": "uint256"
        }
      ],
      "name": "EthDeposited",
      "type": "event"
    },
    {
      "anonymous": false,
      "inputs": [
        {
          "indexed": true,
          "internalType": "address",
          "name": "previousOwner",
          "type": "address"
        },
        {
          "indexed": true,
          "internalType": "address",
          "name": "newOwner",
          "type": "address"
        }
      ],
      "name": "OwnershipTransferred",
      "type": "event"
    },
    {
      "inputs": [],
      "name": "owner",
      "outputs": [
        {
          "internalType": "address",
          "name": "",
          "type": "address"
        }
      ],
      "stateMutability": "view",
      "type": "function"
    },
    {
      "inputs": [],
      "name": "renounceOwnership",
      "outputs": [],
      "stateMutability": "nonpayable",
      "type": "function"
    },
    {
      "inputs": [
        {
          "internalType": "address",
          "name": "newOwner",
          "type": "address"
        }
      ],
      "name": "transferOwnership",
      "outputs": [],
      "stateMutability": "nonpayable",
      "type": "function"
    },
    {
      "inputs": [],
      "name": "depositEth",
      "outputs": [],
      "stateMutability": "payable",
      "type": "function"
    },
    {
      "inputs": [],
      "name": "swapEthToDai",
      "outputs": [],
      "stateMutability": "nonpayable",
      "type": "function"
    },
    {
      "inputs": [],
      "name": "swapDaiToEth",
      "outputs": [],
      "stateMutability": "nonpayable",
      "type": "function"
    },
    {
      "inputs": [],
      "name": "balance",
      "outputs": [
        {
          "internalType": "uint256",
          "name": "",
          "type": "uint256"
        },
        {
          "internalType": "uint256",
          "name": "",
          "type": "uint256"
        }
      ],
      "stateMutability": "view",
      "type": "function"
    }
  ],
  "bytecode": "0x608060405234801561001057600080fd5b50604051610aa0380380610aa083398181016040528101906100329190610206565b61004e6100436100d760201b60201c565b6100df60201b60201c565b81600160006101000a81548173ffffffffffffffffffffffffffffffffffffffff021916908373ffffffffffffffffffffffffffffffffffffffff16021790555080600260006101000a81548173ffffffffffffffffffffffffffffffffffffffff021916908373ffffffffffffffffffffffffffffffffffffffff1602179055505050610246565b600033905090565b60008060009054906101000a900473ffffffffffffffffffffffffffffffffffffffff169050816000806101000a81548173ffffffffffffffffffffffffffffffffffffffff021916908373ffffffffffffffffffffffffffffffffffffffff1602179055508173ffffffffffffffffffffffffffffffffffffffff168173ffffffffffffffffffffffffffffffffffffffff167f8be0079c531659141344cd1fd0a4f28419497f9722a3daafe3b4186f6b6457e060405160405180910390a35050565b600080fd5b600073ffffffffffffffffffffffffffffffffffffffff82169050919050565b60006101d3826101a8565b9050919050565b6101e3816101c8565b81146101ee57600080fd5b50565b600081519050610200816101da565b92915050565b6000806040838503121561021d5761021c6101a3565b5b600061022b858286016101f1565b925050602061023c858286016101f1565b9150509250929050565b61084b806102556000396000f3fe6080604052600436106100705760003560e01c8063b37bbc291161004e578063b37bbc29146100c1578063b69ef8a8146100d8578063dbb9bae614610104578063f2fde38b1461011b57610070565b8063439370b114610075578063715018a61461007f5780638da5cb5b14610096575b600080fd5b61007d610144565b005b34801561008b57600080fd5b5061009461017d565b005b3480156100a257600080fd5b506100ab610205565b6040516100b891906105d7565b60405180910390f35b3480156100cd57600080fd5b506100d661022e565b005b3480156100e457600080fd5b506100ed6102ac565b6040516100fb92919061060b565b60405180910390f35b34801561011057600080fd5b50610119610354565b005b34801561012757600080fd5b50610142600480360381019061013d9190610665565b6103d2565b005b7f44863bc9b335caf97ca3a3ab6fb67776965a88292ed53b0679f8eae4a67b630c346040516101739190610692565b60405180910390a1565b6101856104ca565b73ffffffffffffffffffffffffffffffffffffffff166101a3610205565b73ffffffffffffffffffffffffffffffffffffffff16146101f9576040517f08c379a00000000000000000000000000000000000000000000000000000000081526004016101f09061070a565b60405180910390fd5b61020360006104d2565b565b60008060009054906101000a900473ffffffffffffffffffffffffffffffffffffffff16905090565b6102366104ca565b73ffffffffffffffffffffffffffffffffffffffff16610254610205565b73ffffffffffffffffffffffffffffffffffffffff16146102aa576040517f08c379a00000000000000000000000000000000000000000000000000000000081526004016102a19061070a565b60405180910390fd5b565b60008047600160009054906101000a900473ffffffffffffffffffffffffffffffffffffffff1673ffffffffffffffffffffffffffffffffffffffff166370a08231306040518263ffffffff1660e01b815260040161030b91906105d7565b602060405180830381865afa158015610328573d6000803e3d6000fd5b505050506040513d601f19601f8201168201806040525081019061034c9190610756565b915091509091565b61035c6104ca565b73ffffffffffffffffffffffffffffffffffffffff1661037a610205565b73ffffffffffffffffffffffffffffffffffffffff16146103d0576040517f08c379a00000000000000000000000000000000000000000000000000000000081526004016103c79061070a565b60405180910390fd5b565b6103da6104ca565b73ffffffffffffffffffffffffffffffffffffffff166103f8610205565b73ffffffffffffffffffffffffffffffffffffffff161461044e576040517f08c379a00000000000000000000000000000000000000000000000000000000081526004016104459061070a565b60405180910390fd5b600073ffffffffffffffffffffffffffffffffffffffff168173ffffffffffffffffffffffffffffffffffffffff1614156104be576040517f08c379a00000000000000000000000000000000000000000000000000000000081526004016104b5906107f5565b60405180910390fd5b6104c7816104d2565b50565b600033905090565b60008060009054906101000a900473ffffffffffffffffffffffffffffffffffffffff169050816000806101000a81548173ffffffffffffffffffffffffffffffffffffffff021916908373ffffffffffffffffffffffffffffffffffffffff1602179055508173ffffffffffffffffffffffffffffffffffffffff168173ffffffffffffffffffffffffffffffffffffffff167f8be0079c531659141344cd1fd0a4f28419497f9722a3daafe3b4186f6b6457e060405160405180910390a35050565b600073ffffffffffffffffffffffffffffffffffffffff82169050919050565b60006105c182610596565b9050919050565b6105d1816105b6565b82525050565b60006020820190506105ec60008301846105c8565b92915050565b6000819050919050565b610605816105f2565b82525050565b600060408201905061062060008301856105fc565b61062d60208301846105fc565b9392505050565b600080fd5b610642816105b6565b811461064d57600080fd5b50565b60008135905061065f81610639565b92915050565b60006020828403121561067b5761067a610634565b5b600061068984828501610650565b91505092915050565b60006020820190506106a760008301846105fc565b92915050565b600082825260208201905092915050565b7f4f776e61626c653a2063616c6c6572206973206e6f7420746865206f776e6572600082015250565b60006106f46020836106ad565b91506106ff826106be565b602082019050919050565b60006020820190508181036000830152610723816106e7565b9050919050565b610733816105f2565b811461073e57600080fd5b50565b6000815190506107508161072a565b92915050565b60006020828403121561076c5761076b610634565b5b600061077a84828501610741565b91505092915050565b7f4f776e61626c653a206e6577206f776e657220697320746865207a65726f206160008201527f6464726573730000000000000000000000000000000000000000000000000000602082015250565b60006107df6026836106ad565b91506107ea82610783565b604082019050919050565b6000602082019050818103600083015261080e816107d2565b905091905056fea2646970667358221220cc2fbf716cf04e602d26100530f777a219fca3571d95fb9e361932bd89d339d264736f6c634300080a0033",
  "immutableReferences": {},
  "source": "// SPDX-License-Identifier: MIT\npragma solidity ^0.8.10;\n\nimport \"@openzeppelin/contracts/access/Ownable.sol\";\nimport \"@openzeppelin/contracts/token/ERC20/IERC20.sol\";\nimport \"./paraswap/IParaswap.sol\";\n\ncontract Exchanger is Ownable {\n    IERC20 private tokenContract;\n    IParaswap private paraswapContract;\n\n    event EthDeposited(uint256 value);\n\n    constructor(address token_, address paraswap_) {\n        tokenContract = IERC20(token_);\n        paraswapContract = IParaswap(paraswap_);\n    }\n\n    function depositEth() public payable {\n        emit EthDeposited(msg.value);\n    }\n\n    function swapEthToDai() public onlyOwner {\n\n    }\n\n    function swapDaiToEth() public onlyOwner {}\n\n    function balance() public view returns(uint256, uint256) {\n        return (\n            address(this).balance,\n            tokenContract.balanceOf(address(this))\n        );\n    }\n}",
  "sourcePath": "/home/mike/work/misc/test-solidity/contracts/Exchanger.sol",
  "compiler": {
    "name": "solc",
    "version": "0.8.10+commit.fc410830.Emscripten.clang"
  },
  "schemaVersion": "3.4.3",
  "updatedAt": "2021-11-26T11:14:36.515Z",
  "devdoc": {
    "kind": "dev",
    "methods": {
      "owner()": {
        "details": "Returns the address of the current owner."
      },
      "renounceOwnership()": {
        "details": "Leaves the contract without owner. It will not be possible to call `onlyOwner` functions anymore. Can only be called by the current owner. NOTE: Renouncing ownership will leave the contract without an owner, thereby removing any functionality that is only available to the owner."
      },
      "transferOwnership(address)": {
        "details": "Transfers ownership of the contract to a new account (`newOwner`). Can only be called by the current owner."
      }
    },
    "version": 1
  },
  "userdoc": {
    "kind": "user",
    "methods": {},
    "version": 1
  }
}