{
  "contractName": "Payable",
  "abi": [
    {
      "inputs": [],
      "stateMutability": "payable",
      "type": "constructor"
    },
    {
      "inputs": [],
      "name": "owner",
      "outputs": [
        {
          "internalType": "address payable",
          "name": "",
          "type": "address"
        }
      ],
      "stateMutability": "view",
      "type": "function"
    },
    {
      "inputs": [],
      "name": "depositEth",
      "outputs": [],
      "stateMutability": "payable",
      "type": "function"
    }
  ],
  "bytecode": "0x6080604052336000806101000a81548173ffffffffffffffffffffffffffffffffffffffff021916908373ffffffffffffffffffffffffffffffffffffffff16021790555061010b806100536000396000f3fe60806040526004361060265760003560e01c8063439370b114602b5780638da5cb5b146033575b600080fd5b60316059565b005b348015603e57600080fd5b506045605b565b6040516050919060bc565b60405180910390f35b565b60008054906101000a900473ffffffffffffffffffffffffffffffffffffffff1681565b600073ffffffffffffffffffffffffffffffffffffffff82169050919050565b600060a882607f565b9050919050565b60b681609f565b82525050565b600060208201905060cf600083018460af565b9291505056fea2646970667358221220047f3a8f6e375fb6060826da61c8dea12a37203fdf37b787ab76a447d77442b264736f6c634300080a0033",
  "immutableReferences": {},
  "source": "pragma solidity ^0.8.3;\n\ncontract Payable {\n    // Payable address can receive Ether\n    address payable public owner;\n\n    constructor() payable {\n        owner = payable(msg.sender);\n    }\n\n    function depositEth() public payable {}\n}",
  "sourcePath": "/home/mike/work/misc/test-solidity/contracts/Exchanger.sol",
  "compiler": {
    "name": "solc",
    "version": "0.8.10+commit.fc410830.Emscripten.clang"
  },
  "schemaVersion": "3.4.3",
  "updatedAt": "2021-11-26T07:26:14.930Z",
  "devdoc": {
    "kind": "dev",
    "methods": {},
    "version": 1
  },
  "userdoc": {
    "kind": "user",
    "methods": {},
    "version": 1
  }
}